:03000000020006F5
:10005F00E4F50BF50CF50D750E00750F007510001E
:0F006F00751100750800750941750A000200033C
:03000300020939B6
:10007E00C012858112AF82E51224FDF8E626FEE558
:10008E001224FCF88605EE2DC454F02FFE43B0105A
:10009E008E90D0122253B0EF7590FF85908222C0C1
:1000AE00128581120581A812087600A81208B606DC
:1000BE0000400302027DA81208E6C40354F8FE7D38
:1000CE0000BD020040030201F2900A95E493FF7412
:1000DE000193FB900A97E493FA740193FCC006C057
:1000EE0005C007C0038A828C831209CFAB82AC8312
:1000FE0015811581D005C3E49BFBE49CFC8C8D8B94
:10010E008BC28FD28E8D037C00AA0D7F00EA2BF559
:10011E0082EF3CF583C0057408C0E0E4C0E0120A2B
:10012E000DAC8215811581D005D006900A9EE49300
:10013E00FA740193FB740293FFEE2AFAE43BFBEC94
:10014E002AFAE43BFB8A828B838FF01209F1FAC004
:10015E0006C005C005A81208E6C0E08A8212007E1D
:10016E0015811581D005D006308FFDC28EC28F90BD
:10017E000A95E493FC740193FF900A97E493FA7442
:10018E000193FBC006C005C004C0078A828B831290
:10019E0009CFAC82AF8315811581D005C3E49CFCD9
:1001AE00E49FFF8F8D8C8BC28FD28EC005C005A8A9
:1001BE001208E6C0E075820F12007E15811581D0FF
:1001CE0005D006900A93E493FC740193FFAA0BAB3F
:1001DE000CEC2AF50BEF3BF50C308FFDC28EC28F67
:1001EE000D0200CF900A99E493FE740193FFAC0BBD
:1001FE00AD0CC3EE9CEF9D5021E50D04F50DAA0D3F
:10020E005302078A0DC006C0078C828D83120A4ADC
:10021E0085820B85830C158115811200A3AF827424
:10022E000155B0600F8F0553050F7E00BD0C05BE46
:10023E0000028024740255B0C313FE602B5307F0E6
:10024E00E4CFC4540F6FCF540FCF6FCF30E30244BF
:10025E00F0FEBF0C13BE0010AD08AE09AF0A8D82C2
:10026E008E838FF0E41209B4A81208060200B915A5
:10027E0081D01222C0128581120581A81208760043
:10028E00A81208B6060040030203D8A81208E4B666
:10029E00050104FEA81208E4B6010104FD7C00BCB1
:1002AE00020040030203D1C005900A95E493FF7447
:1002BE000193FA900A97E493FB740193FDC006C074
:1002CE0004C007C0028B828D831209CFAB82AD832F
:1002DE0015811581D004D006C3E49BFBE49DFD8DF2
:1002EE008D8B8BC28FD28ED005EC7033EE6030C00A
:1002FE0005900A9EE493FA740193FB740293FDE554
:10030E000FC40354F82AFAE43BFBE50E2AFAE43B49
:10031E00FB8A828B838DF01209F1FFD0058019ECD8
:10032E00700AA81208E67004AF0F800CEC7007ED8F
:10033E006004AF0E80027F0FC006C005C004C0046B
:10034E00A81208E6C0E08F8212007E15811581D0BA
:10035E0004D005D006308FFDC005C28EC28F900A24
:10036E0095E493FB740193FF900A97E493FA74015A
:10037E0093FDC006C004C003C0078A828D83120994
:10038E00CFAD82AF8315811581D004C3E49DFDE40A
:10039E009FFF8F8D8D8BC28FD28EC005C004C0047F
:1003AE00A81208E6C0E075820F12007E1581158135
:1003BE00D004D005D006D005308FFDC28EC28F0C72
:1003CE000202ADA812080602028E740155B0FFBFDC
:1003DE0001028003020680E510600302068075109C
:1003EE00011200A3AE8253060FE4FD30E7030206AE
:1003FE0085C3740F9E74808DF063F08095F050036A
:10040E00020685EE240A83F582EE241483F583E436
:10041E007387B6E56DFA29584D6D9CCB2D853F132C
:10042E002005050506040505060404040606040653
:10043E0006900A9EE493FC740193FD740293FEE50C
:10044E000FC40354F8FB2CFCE43DFDE50E2CFCE43C
:10045E003DFD8C828D838EF0E41209B402068590E8
:10046E000A9EE493FC740193FD740293FEE50FC49F
:10047E000354F8FB2CFCE43DFDE50E2CFCE43DFDA5
:10048E008C828D838EF074011209B4020685900A57
:10049E009EE493FC740193FD740293FEE50FC40376
:1004AE0054F8FB2CFCE43DFDE50E2CFCE43DFD8CEC
:1004BE00828D838EF074021209B4020685900A9E14
:1004CE00E493FC740193FD740293FEE50FC4035490
:1004DE00F8FB2CFCE43DFDE50E2CFCE43DFD8C828E
:1004EE008D838EF074031209B4020685900A9EE481
:1004FE0093FC740193FD740293FEE50FC40354F84C
:10050E00FB2CFCE43DFDE50E2CFCE43DFD8C828DC8
:10051E00838EF074041209B4020685900A9EE49349
:10052E00FC740193FD740293FEE50FC40354F8FBB3
:10053E002CFCE43DFDE50E2CFCE43DFD8C828D8310
:10054E008EF074051209B4020685900A9EE493FC9F
:10055E00740193FD740293FEE50FC40354F8FB2C53
:10056E00FCE43DFDE50E2CFCE43DFD8C828D838E7E
:10057E00F074061209B4020685900A9EE493FC7488
:10058E000193FD740293FEE50FC40354F8FB2CFC9B
:10059E00E43DFDE50E2CFCE43DFD8C828D838EF05A
:1005AE0074071209B4020685900A9EE493FC740146
:1005BE0093FD740293FEE50FC40354F8FB2CFCE488
:1005CE003DFDE50E2CFCE43DFD8C828D838EF0749A
:1005DE00081209B4020685900A9EE493FC740193F6
:1005EE00FD740293FEE50FC40354F8FB2CFCE43DAE
:1005FE00FDE50E2CFCE43DFD8C828D838EF074099E
:10060E001209B48072150EAD0E5305077E008D0EC5
:10061E008065050EAD0E5305077E008D0E805815B4
:10062E000FAD0F7E007406C0E0E4C0E08D828E83B5
:10063E00120A0DAD82AE83158115818D0F8038059E
:10064E000FAD0F7E007406C0E0E4C0E08D828E8395
:10065E00120A0DAD82AE83158115818D0F8018ACF7
:10066E0008AD09AE0A8C828D838EF074011209B426
:10067E008005EF7002F510740255B0C313FFBF0171
:10068E0002800302092FE511600302092F75110183
:10069E001200A3AE8253060FE4FD30E703020934C5
:1006AE00C3740F9E74808DF063F08095F05003023A
:1006BE000934EE240A83F582EE241483F583E47361
:1006CE003665941CA9D807FC1C4B7ADC34EEC2CFDD
:1006DE000808080907070808070707080906080891
:1006EE00900A9EE493FC740193FD740293FEE50F51
:1006FE00C40354F8FB2CFCE43DFDE50E2CFCE43D5C
:10070E00FD8C828D838EF0E41209B4020934900AB6
:10071E009EE493FC740193FD740293FEE50FC403F3
:10072E0054F8FB2CFCE43DFDE50E2CFCE43DFD8C69
:10073E00828D838EF074011209B4020934900A9EE0
:10074E00E493FC740193FD740293FEE50FC403540D
:10075E00F8FB2CFCE43DFDE50E2CFCE43DFD8C820B
:10076E008D838EF074021209B4020934900A9EE44D
:10077E0093FC740193FD740293FEE50FC40354F8C9
:10078E00FB2CFCE43DFDE50E2CFCE43DFD8C828D46
:10079E00838EF074031209B4020934900A9EE49316
:1007AE00FC740193FD740293FEE50FC40354F8FB31
:1007BE002CFCE43DFDE50E2CFCE43DFD8C828D838E
:1007CE008EF074041209B4020934900A9EE493FC6C
:1007DE00740193FD740293FEE50FC40354F8FB2CD1
:1007EE00FCE43DFDE50E2CFCE43DFD8C828D838EFC
:1007FE00F074051209B4020934900A9EE493FC7455
:10080E000193FD740293FEE50FC40354F8FB2CFC18
:10081E00E43DFDE50E2CFCE43DFD8C828D838EF0D7
:10082E0074061209B4020934900A9EE493FC740112
:10083E0093FD740293FEE50FC40354F8FB2CFCE405
:10084E003DFDE50E2CFCE43DFD8C828D838EF07417
:10085E00071209B4020934900A9EE493FC740193C2
:10086E00FD740293FEE50FC40354F8FB2CFCE43D2B
:10087E00FDE50E2CFCE43DFD8C828D838EF074081C
:10088E001209B4020934900A9EE493FC740193FD9C
:10089E00740293FEE50FC40354F8FB2CFCE43DFDFB
:1008AE00E50E2CFCE43DFD8C828D838EF0740912D6
:1008BE0009B48072150EAD0E5305077E008D0E80A5
:1008CE0065050EAD0E5305077E008D0E8058150F73
:1008DE00AD0F7E007406C0E0E4C0E08D828E831200
:1008EE000A0DAD82AE83158115818D0F8038050FEF
:1008FE00AD0F7E007406C0E0E4C0E08D828E8312E0
:10090E000A0DAD82AE83158115818D0F8018AC084E
:10091E00AD09AE0A8C828D838EF074011209B480FB
:10092E0005EF7002F5111581D012227F00BF06006F
:10093E005037EFC40354F8FE7D00BD0800502790D9
:10094E000A9EE493FA740193FB740293FCEE2AFA66
:10095E00E43BFBED2AFAE43BFB8A828B838CF0EDC1
:10096E001209B40D80D40F80C45389F0438901431A
:10097E00B00143B002AD08AE09AF0A8D828E838FEF
:10098E00F074011209B4AD08AE09AF0A8D828E83E0
:10099E008FF01209F1FF6008BF01EB1200AD80E687
:0609AE0012028280E1222A
:0E0A930008000400E02E5E030040000040005A
:06003500E478FFF6D8FD9F
:100013007900E94400601B7A00900AA1780175A079
:1000230000E493F2A308B8000205A0D9F4DAF2754C
:02003300A0FF2C
:1009B40020F71130F6138883A88220F509F6A8835E
:1009C4007583002280FEF280F5F02274FE2581F802
:1009D400E68582F0A4C0E08582F018E6A4F582D012
:0D09E400E025F0C58386F0A42583F583226D
:10003B007800E84400600A790175A000E4F309D860
:10004B00FC7800E84400600C7900900001E4F0A318
:04005B00D8FCD9FAFA
:0D000600758112120A8FE58260030200036B
:1009F10020F71430F6148883A88220F507E6A8832F
:100A010075830022E280F7E49322E022C2D5E583D8
:100A110030E70DD2D5E4C39582F582E49583F58361
:100A2100E58124FEF8E630E70918E4C396F6E40808
:100A310096F68601188600120A5430D50BE4C39548
:100A410082F582E49583F58322E58124FEF886010F
:100A5100188600E84960367A01E825E0F8E9334074
:100A61000EF9E58298E5839940030A80ECC3E91306
:100A7100F9E813F8C3E58298F5F0E583994005F5A7
:100A81008385F082C3E913F9E813F8DAE722758266
:020A9100002241
:00000001FF
