:03000000020006F5
:10005F00E4F508F509750A08750B0FF50C750D0811
:10006F00750E04750F05751001751104751206755F
:10007F00130775140875150975160A751700751885
:10008F004075190E751A00751B40751C12751D00F1
:06009F00751E4002000383
:030003000200E018
:1000A5005389F0438901220200A585821F8583209B
:1000B500900157E493FE740193FF8E828F831201A2
:1000C50016AE82AF83C3E49EFEE49FFF8F8D8E8BB9
:1000D500D28E22308FFDC28EC28F221200AC90408C
:1000E5000075F00074091200FB90400075F00012D5
:0600F5000133F59080F3D9
:080153007F003A0000023505AF
:06003500E478FFF6D8FD9F
:100013007900E94400601B7A0090015B780175A0C8
:1000230000E493F2A308B8000205A0D9F4DAF2754C
:02003300A0FF2C
:1000FB0020F71130F6138883A88220F509F6A88320
:10010B007583002280FEF280F5F022E582851FF0D8
:10011B00A4C582C0F08520F0A4D0F025F0C583855E
:08012B001FF0A42583F58322D7
:10003B007800E84400600A790175A000E4F309D860
:10004B00FC7800E84400600C7900900001E4F0A318
:04005B00D8FCD9FAFA
:0D00060075812012014FE5826003020003A6
:1001330020F71430F6148883A88220F507E6A883F5
:1001430075830022E280F7E49322E0227582002285
:00000001FF
